:1000000000800020B1010000DD010000DD010000E2
:10001000DD010000DD010000DD010000DD01000068
:10002000DD010000DD010000DD010000DD01000058
:10003000DD010000DD010000DD010000DD01000048
:10004000DD010000DD010000DD010000DD01000038
:10005000DD010000DD010000DD010000DD01000028
:10006000DD010000DD010000DD010000DD01000018
:10007000DD010000DD010000DD010000DD01000008
:10008000DD010000DD010000DD010000DD010000F8
:10009000DD010000DD010000DD010000DD010000E8
:1000A000DD010000DD010000DD010000DD010000D8
:1000B000DD010000DD010000DD010000DD010000C8
:1000C000DD010000DD010000DD010000DD010000B8
:1000D000DD010000DD010000DD010000DD010000A8
:1000E00010B5054C237833B9044B13B10448AFF372
:1000F00000800123237010BD780000200000000064
:10010000B40C0000084B10B51BB108480849AFF308
:1001100000800848036803B910BD074B002BFBD0D3
:10012000BDE81040184700BF00000000B40C0000FC
:100130007C0000207400002000000000154B002B04
:1001400008BF134B9D46A3F5803A00218B460F460E
:100150001348144A121A00F093FD0F4B002B00D0E5
:1001600098470E4B002B00D0984700200021040038
:100170000D000D48002802D00C48AFF3008000F0BD
:1001800059FD2000290000F013FD00F03FFD00BFE5
:1001900000000800008000200000000000000000B7
:1001A0007800002094000020000000000000000003
:1001B000064880470649074A074B9A42BEBF51F896
:1001C000040B42F8040BF8E7FFF7B8FF3103000017
:1001D000C00C00000000002078000020FEE700BFF7
:1001E00080B400AF044BDB6C1B0EDBB21846BD467F
:1001F0005DF8047B704700BFB081E00F80B582B02E
:1002000000AF00F015F87860074B5B6803F00F0350
:100210001A467B68D3407B60044A7B6813607B6826
:1002200018460837BD4680BD00800C4008000020FD
:1002300080B582B000AF334BDB6A03F47053B3F583
:10024000805F0AD0B3F5005F03D0B3F5006F08D02C
:100250000BE02D4B1B687B6047E04FF400437B6055
:1002600043E02A4B1B687B603FE0264BDB6803F4CE
:10027000E063B3F5007F1BD0B3F5007F05D8002BFA
:1002800024D0B3F5807F16D02BE0B3F5806F09D072
:10029000B3F5A06F03D0B3F5407F06D021E01C4B2F
:1002A0007B6021E01B4B7B601EE01B4B7B601BE0F7
:1002B0001A4B7B6018E0FFF793FF0346122B02D91D
:1002C000174B7B6010E0174B7B600DE0FFF788FF5A
:1002D0000346122B02D9144B7B6005E0134B7B6065
:1002E00002E000237B6000BF00BF064B1B6803F4E5
:1002F000E0339B0B01337A68B2FBF3F318460837FF
:10030000BD4680BD00800C4004000020000000209D
:10031000003FAB01406F4001809FD500C0D8A700CF
:1003200040B56400C0CF6A00804F120040420F0009
:1003300080B400AF054A054BD3F8883043F470030E
:10034000C2F88830BD465DF8047B704700ED00E0E0
:1003500080B400AF4FF400431846BD465DF8047BFF
:10036000704700BF80B400AF4FF47A731846BD46A3
:100370005DF8047B704700BF80B400AF034B1B687F
:100380001846BD465DF8047B704700BF040000209E
:1003900080B487B000AFF860B9607A60FB6803F1A1
:1003A0000473DA00BB6813449B007B617B697A6845
:1003B0001A601C37BD465DF8047B704780B485B079
:1003C00000AF786039607B6803F10473DA003B6842
:1003D00013449B00FB60FB681B6818461437BD463E
:1003E0005DF8047B704700BF80B400AF044BDB6C4A
:1003F0001B0EDBB21846BD465DF8047B704700BF9C
:10040000B081E00F80B584B000AF78600123FB605D
:100410007B68114A934204D80023FB600023BB6031
:1004200008E07B680D4A934202D80123BB6001E0DB
:100430000223BB600A481E21FA68FFF7A9FF08499A
:10044000074B5B6823F48072BB681B0213434B604D
:100450001037BD4680BD00BF00366E01006CDC0267
:1004600000800C4080B582B000AF05481E21FFF728
:10047000A5FF78607B6818460837BD4680BD00BF81
:1004800000800C4080B582B000AF214B5B6903F463
:10049000E063B3F5007F1CD0B3F5007F05D8002BD7
:1004A00025D0B3F5807F1FD02AE0B3F5C06F24D0EC
:1004B000B3F5E06F1ED0B3F5407F21D1FFF794FF75
:1004C0000346122B02D9134B7B601CE0124B7B605E
:1004D00019E0FFF789FF0346122B02D90F4B7B600F
:1004E00011E00F4B7B600EE00E4B7B600BE00E4B80
:1004F0007B6008E00D4B7B6005E00D4B7B6002E00C
:1005000000237B6000BF7B6818460837BD4680BD6E
:1005100000800C40804F120040420F0040B5640044
:10052000C0CF6A00C0D8A700809FD500406F4001AF
:10053000003FAB0180B582B000AF0D4800F0C2F9BA
:100540000346FB70FB78072B05D0092B07D1FFF77B
:100550006FFE786006E0FFF795FF786002E0002309
:100560007B6000BF7B6818460837BD4680BD00BF72
:1005700006000C0090B585B000AF78600023BB602A
:100580007B68344A934203D0334A934200D000E060
:1005900000BF786800F096F90346FB607B682D4A3F
:1005A000934203D02C4A934206D00CE02B4B9B6A1B
:1005B00003F00303FB6006E0284B9B6A03F00C0387
:1005C0009B08FB6000BFFB68032B3AD801A252F8DE
:1005D00023F000BF0B060000E5050000ED0500005C
:1005E000F5050000FFF7B4FEB8602DE0FFF7C4FE8C
:1005F000B86029E0FFF702FE0446FFF733FF034629
:10060000013324FA03F3BB601EE00023BB607B6868
:10061000104A934203D07B680F4A934210D10F4B8C
:100620009A6A7B680B498B4201D1102300E01423A6
:1006300022FA03F3002B03D0FFF794FEB86003E027
:1006400002E00023BB6000BFBB6818461437BD46FC
:1006500090BD00BF02001A0003001C0000800C4087
:1006600080B483B000AF7860094B5B6D03F0010389
:10067000002B00D006E000BF054B1A6D7B681340CD
:10068000002BF9D10C37BD465DF8047B704700BFE5
:1006900000800C4080B586B000AF78600B46FB70E0
:1006A00000233B617B681B0A03F00F03013B092B0E
:1006B00045D801A252F823F0F5060000FB06000021
:1006C000E10600003F0700003F07000001070000AF
:1006D0000B0700003F0700003F0700001507000060
:1006E000194B7B61194800F03DF803461846FFF7A7
:1006F00089FE12E0164B7B610FE0164B7B610CE02C
:10070000154B7B6101233B6107E0144B7B61102398
:100710003B6102E0124B7B6100BF7B681B0B03F067
:100720001F03FB603B69002B02D03869FFF798FF7D
:10073000FB787869F9681A46FFF72AFE00E000BFE7
:100740001837BD4680BD00BF40800C40004302000A
:1007500008800C4044800C4058800C4060800C4065
:1007600078800C4080B584B000AF78607B6803F47B
:100770007813B3F5801F45D0B3F5801F12D8B3F5B9
:10078000802F2AD0B3F5802F05D8002B21D0B3F5C8
:10079000003F2ED087E0B3F5402F7CD0B3F5602F1B
:1007A0007DD080E0B3F5C01F67D0B3F5C01F06D879
:1007B000B3F5A01F34D0B3F5B01F51D073E0B3F53B
:1007C000E01F48D0B3F5281F38D0B3F5D01F14D0A0
:1007D00069E0FFF72DFDF86068E0FFF729FDF8609C
:1007E000354B9B6803F00F031A46FB68D340FB6050
:1007F0005CE0FFF703FDF86058E03048FFF7BAFE11
:10080000F86053E02D48FFF7B5FEF8602A4B9B6E69
:1008100003F0F0031B091A46FB68D340FB6045E078
:100820002648FFF7A7FEF860234B9B6E03F4706326
:100830001B0A1A46FB68D340FB6037E01F48FFF7EE
:1008400099FEF8601C4B9B6E03F003031A46FB688D
:10085000D340FB602AE01A48FFF78CFEF86025E0E1
:100860001748FFF787FEF860134B1B6F03F0030375
:100870001A46FB68D340FB6018E01148FFF77AFE88
:10088000F8600D4B1B6F03F030031B091A46FB6821
:10089000D340FB600AE0FFF74DFEF86006E0FFF78B
:1008A000F1FDF86002E00023FB6000BFFB68184622
:1008B0001037BD4680BD00BF00800C4002001A000A
:1008C00003001C0080B485B000AF78600123FB7387
:1008D0007B6803F00F03BB60BB68013B052B77D837
:1008E00001A252F823F000BF0109000037090000FF
:1008F00073090000D1090000D1090000AF09000010
:10090000384BDB6A03F47053B3F5805F09D0B3F55D
:10091000005F03D0B3F5006F06D008E00223FB733D
:1009200008E00323FB7305E00423FB7302E00523C7
:10093000FB7300BF4FE02B4B9B6A03F00303022BBA
:1009400006D0032B07D0012B08D10323FB730FE044
:100950000223FB730CE00623FB7309E0214B9B6A27
:1009600003F48033002B02D00A23FB7300E000BFA6
:1009700031E01C4B9B6A03F00C03082B06D00C2BB8
:1009800007D0042B08D10323FB730FE00223FB7372
:100990000CE00623FB7309E0124B9B6A03F48013FF
:1009A000002B02D00A23FB7300E000BF13E00D4BC5
:1009B0001B6803F08053002B03D0B3F1805F03D09A
:1009C00009E00723FB7302E00923FB7300BF02E089
:1009D0000023FB7300BFFB7B18461437BD465DF850
:1009E000047B704700800C4080B483B000AF0346A6
:1009F0003960FB71FB79002B0DD0FB79012B0AD0FC
:100A0000FB79022B07D0FB79032B04D0FB79042B55
:100A100001D0FB79052B0949FA793B68012000FADE
:100A200003F318461346DB0013449B000B441033BA
:100A300058600C37BD465DF8047B7047006000408D
:100A400080B483B000AF03463960FB71FB79002BA3
:100A50000DD0FB79012B0AD0FB79022B07D0FB7953
:100A6000032B04D0FB79042B01D0FB79052B09491A
:100A7000FA793B68012000FA03F318461346DB00BD
:100A800013449B000B44103318600C37BD465DF8CF
:100A9000047B70470060004090B585B000AFB9603E
:100AA0007B600346FB731346BB73FB7B002B0DD0AF
:100AB000FB7B012B0AD0FB7B022B07D0FB7B032B9C
:100AC00004D0FB7B042B01D0FB7B052BBB7B002BD5
:100AD0000DD07B68002B05D0FB7B1846B968FFF76B
:100AE000AFFF04E0FB7B1846B968FFF77DFFBB68EA
:100AF000072B1CD82A4CFA7B2948F97B0B46DB00D4
:100B00000B449B0003445968BB689B0018460F23A5
:100B10008340DB430B40B97BB868800081401943B8
:100B20001346DB0013449B002344596024E01C4C13
:100B3000FA7B1B48F97B0B46DB000B449B0003440C
:100B400008331968BB6803F18043083B9B001846D3
:100B50000F238340DB431940B87BBB6803F180431C
:100B6000083B9B0000FA03F319431346DB001344D0
:100B70009B00234408331960BB7B002B0DD17B689D
:100B8000002B05D0FB7B1846B968FFF759FF04E03E
:100B9000FB7B1846B968FFF727FF1437BD4690BDA9
:100BA0000060004080B400AFBD465DF8047B704734
:100BB00080B582B000AFFFF7F5FF12480121FFF7C3
:100BC00069FD02200C2104220123FFF765FF0023A9
:100BD0007B6002E07B6801337B607B680A4A93425A
:100BE000F8DD02200C2104220023FFF755FF00232B
:100BF0003B6002E03B6801333B603B68024A934242
:100C0000F8DDDEE700D204003F420F0008B5074BD5
:100C1000044613B10021AFF30080054B1868836AC6
:100C200003B19847204600F033F800BF00000000F1
:100C3000B00C000070B50E4B0E4CE41AA410002549
:100C40001E46A54204D056F8253098470135F8E7EE
:100C500000F020F8084C094BE41AA41000251E46A9
:100C6000A54204D056F8253098470135F8E770BD05
:100C70006C0000206C000020700000206C00002040
:100C800002440346934202D003F8011BFAE770477F
:100C9000FEE700BFF8B500BFF8BC08BC9E46704731
:100CA000F8B500BFF8BC08BC9E4670474300000082
:080CB0000C0000200000000010
:080CB80084F4FF7F010000003D
:100CC000006CDC0200800000809FD5000000000066
:100CD0000000000000000000000000000000000014
:100CE000000000000000000000000000AC0C00004C
:100CF00000000000000000000000000000000000F4
:100D000000000000000000000000000000000000E3
:100D100000000000000000000000000000000000D3
:100D200000000000000000000000000005010000BD
:080D3000E100000000000000DA
:04000003000001B147
:00000001FF
